{
	"data": {
		"bytecode": {
			"linkReferences": {},
			"object": "608060405234801561000f575f80fd5b5061015b8061001d5f395ff3fe608060405234801561000f575f80fd5b5060043610610034575f3560e01c80630ab08a7f146100385780638d28629614610056575b5f80fd5b610040610072565b60405161004d91906100b3565b60405180910390f35b610070600480360381019061006b91906100fa565b61007a565b005b5f8054905090565b6101f4811115610091576101f45f81905550610098565b805f819055505b50565b5f819050919050565b6100ad8161009b565b82525050565b5f6020820190506100c65f8301846100a4565b92915050565b5f80fd5b6100d98161009b565b81146100e3575f80fd5b50565b5f813590506100f4816100d0565b92915050565b5f6020828403121561010f5761010e6100cc565b5b5f61011c848285016100e6565b9150509291505056fea26469706673582212201ebbe9bf3287392d94b1c89559d2c06db52bedab78ab40d2330b52f7ad2774ce64736f6c63430008140033",
			"opcodes": "PUSH1 0x80 PUSH1 0x40 MSTORE CALLVALUE DUP1 ISZERO PUSH2 0xF JUMPI PUSH0 DUP1 REVERT JUMPDEST POP PUSH2 0x15B DUP1 PUSH2 0x1D PUSH0 CODECOPY PUSH0 RETURN INVALID PUSH1 0x80 PUSH1 0x40 MSTORE CALLVALUE DUP1 ISZERO PUSH2 0xF JUMPI PUSH0 DUP1 REVERT JUMPDEST POP PUSH1 0x4 CALLDATASIZE LT PUSH2 0x34 JUMPI PUSH0 CALLDATALOAD PUSH1 0xE0 SHR DUP1 PUSH4 0xAB08A7F EQ PUSH2 0x38 JUMPI DUP1 PUSH4 0x8D286296 EQ PUSH2 0x56 JUMPI JUMPDEST PUSH0 DUP1 REVERT JUMPDEST PUSH2 0x40 PUSH2 0x72 JUMP JUMPDEST PUSH1 0x40 MLOAD PUSH2 0x4D SWAP2 SWAP1 PUSH2 0xB3 JUMP JUMPDEST PUSH1 0x40 MLOAD DUP1 SWAP2 SUB SWAP1 RETURN JUMPDEST PUSH2 0x70 PUSH1 0x4 DUP1 CALLDATASIZE SUB DUP2 ADD SWAP1 PUSH2 0x6B SWAP2 SWAP1 PUSH2 0xFA JUMP JUMPDEST PUSH2 0x7A JUMP JUMPDEST STOP JUMPDEST PUSH0 DUP1 SLOAD SWAP1 POP SWAP1 JUMP JUMPDEST PUSH2 0x1F4 DUP2 GT ISZERO PUSH2 0x91 JUMPI PUSH2 0x1F4 PUSH0 DUP2 SWAP1 SSTORE POP PUSH2 0x98 JUMP JUMPDEST DUP1 PUSH0 DUP2 SWAP1 SSTORE POP JUMPDEST POP JUMP JUMPDEST PUSH0 DUP2 SWAP1 POP SWAP2 SWAP1 POP JUMP JUMPDEST PUSH2 0xAD DUP2 PUSH2 0x9B JUMP JUMPDEST DUP3 MSTORE POP POP JUMP JUMPDEST PUSH0 PUSH1 0x20 DUP3 ADD SWAP1 POP PUSH2 0xC6 PUSH0 DUP4 ADD DUP5 PUSH2 0xA4 JUMP JUMPDEST SWAP3 SWAP2 POP POP JUMP JUMPDEST PUSH0 DUP1 REVERT JUMPDEST PUSH2 0xD9 DUP2 PUSH2 0x9B JUMP JUMPDEST DUP2 EQ PUSH2 0xE3 JUMPI PUSH0 DUP1 REVERT JUMPDEST POP JUMP JUMPDEST PUSH0 DUP2 CALLDATALOAD SWAP1 POP PUSH2 0xF4 DUP2 PUSH2 0xD0 JUMP JUMPDEST SWAP3 SWAP2 POP POP JUMP JUMPDEST PUSH0 PUSH1 0x20 DUP3 DUP5 SUB SLT ISZERO PUSH2 0x10F JUMPI PUSH2 0x10E PUSH2 0xCC JUMP JUMPDEST JUMPDEST PUSH0 PUSH2 0x11C DUP5 DUP3 DUP6 ADD PUSH2 0xE6 JUMP JUMPDEST SWAP2 POP POP SWAP3 SWAP2 POP POP JUMP INVALID LOG2 PUSH5 0x6970667358 0x22 SLT KECCAK256 0x1E 0xBB 0xE9 0xBF ORIGIN DUP8 CODECOPY 0x2D SWAP5 0xB1 0xC8 SWAP6 MSIZE 0xD2 0xC0 PUSH14 0xB52BEDAB78AB40D2330B52F7AD27 PUSH21 0xCE64736F6C63430008140033000000000000000000 "
		},
		"gasEstimates": {
			"creation": {
				"codeDepositCost": "69400",
				"executionCost": "115",
				"totalCost": "69515"
			},
			"external": {
				"getWattage()": "2410",
				"setWattage(uint256)": "22551"
			}
		},
		"methodIdentifiers": {
			"getWattage()": "0ab08a7f",
			"setWattage(uint256)": "8d286296"
		}
	},
	"abi": [
		{
			"inputs": [],
			"name": "getWattage",
			"outputs": [
				{
					"internalType": "uint256",
					"name": "",
					"type": "uint256"
				}
			],
			"stateMutability": "view",
			"type": "function"
		},
		{
			"inputs": [
				{
					"internalType": "uint256",
					"name": "watt",
					"type": "uint256"
				}
			],
			"name": "setWattage",
			"outputs": [],
			"stateMutability": "nonpayable",
			"type": "function"
		}
	]
}