{
	"data": {
		"bytecode": {
			"linkReferences": {},
			"object": "608060405234801561000f575f80fd5b506103228061001d5f395ff3fe608060405234801561000f575f80fd5b506004361061003f575f3560e01c806364dc88741461004357806366ae5282146100615780639e7a2a9c1461007f575b5f80fd5b61004b61009d565b60405161005891906101ec565b60405180910390f35b6100696100de565b60405161007691906101ec565b60405180910390f35b610087610120565b60405161009491906101ec565b60405180910390f35b60605f6100a86100de565b90505f6100b3610120565b905081816040516020016100c89291906102b3565b6040516020818303038152906040529250505090565b60605f6040518060400160405280600e81526020017f49616d20436f6e7472616374203100000000000000000000000000000000000081525090508091505090565b60605f6040518060400160405280600f81526020017f4920616d20436f6e74726163742032000000000000000000000000000000000081525090508091505090565b5f81519050919050565b5f82825260208201905092915050565b5f5b8381101561019957808201518184015260208101905061017e565b5f8484015250505050565b5f601f19601f8301169050919050565b5f6101be82610162565b6101c8818561016c565b93506101d881856020860161017c565b6101e1816101a4565b840191505092915050565b5f6020820190508181035f83015261020481846101b4565b905092915050565b5f81905092915050565b5f61022082610162565b61022a818561020c565b935061023a81856020860161017c565b80840191505092915050565b50565b5f6102545f8361020c565b915061025f82610246565b5f82019050919050565b7f4920616d20436f6e7472616374330000000000000000000000000000000000005f82015250565b5f61029d600e8361020c565b91506102a882610269565b600e82019050919050565b5f6102be8285610216565b91506102c982610249565b91506102d58284610216565b91506102e082610291565b9150819050939250505056fea2646970667358221220d065ccef30f24e327d19dfb6c7d137f87f7ea1b78377ceadbb11452c0e27dbea64736f6c63430008140033",
			"opcodes": "PUSH1 0x80 PUSH1 0x40 MSTORE CALLVALUE DUP1 ISZERO PUSH2 0xF JUMPI PUSH0 DUP1 REVERT JUMPDEST POP PUSH2 0x322 DUP1 PUSH2 0x1D PUSH0 CODECOPY PUSH0 RETURN INVALID PUSH1 0x80 PUSH1 0x40 MSTORE CALLVALUE DUP1 ISZERO PUSH2 0xF JUMPI PUSH0 DUP1 REVERT JUMPDEST POP PUSH1 0x4 CALLDATASIZE LT PUSH2 0x3F JUMPI PUSH0 CALLDATALOAD PUSH1 0xE0 SHR DUP1 PUSH4 0x64DC8874 EQ PUSH2 0x43 JUMPI DUP1 PUSH4 0x66AE5282 EQ PUSH2 0x61 JUMPI DUP1 PUSH4 0x9E7A2A9C EQ PUSH2 0x7F JUMPI JUMPDEST PUSH0 DUP1 REVERT JUMPDEST PUSH2 0x4B PUSH2 0x9D JUMP JUMPDEST PUSH1 0x40 MLOAD PUSH2 0x58 SWAP2 SWAP1 PUSH2 0x1EC JUMP JUMPDEST PUSH1 0x40 MLOAD DUP1 SWAP2 SUB SWAP1 RETURN JUMPDEST PUSH2 0x69 PUSH2 0xDE JUMP JUMPDEST PUSH1 0x40 MLOAD PUSH2 0x76 SWAP2 SWAP1 PUSH2 0x1EC JUMP JUMPDEST PUSH1 0x40 MLOAD DUP1 SWAP2 SUB SWAP1 RETURN JUMPDEST PUSH2 0x87 PUSH2 0x120 JUMP JUMPDEST PUSH1 0x40 MLOAD PUSH2 0x94 SWAP2 SWAP1 PUSH2 0x1EC JUMP JUMPDEST PUSH1 0x40 MLOAD DUP1 SWAP2 SUB SWAP1 RETURN JUMPDEST PUSH1 0x60 PUSH0 PUSH2 0xA8 PUSH2 0xDE JUMP JUMPDEST SWAP1 POP PUSH0 PUSH2 0xB3 PUSH2 0x120 JUMP JUMPDEST SWAP1 POP DUP2 DUP2 PUSH1 0x40 MLOAD PUSH1 0x20 ADD PUSH2 0xC8 SWAP3 SWAP2 SWAP1 PUSH2 0x2B3 JUMP JUMPDEST PUSH1 0x40 MLOAD PUSH1 0x20 DUP2 DUP4 SUB SUB DUP2 MSTORE SWAP1 PUSH1 0x40 MSTORE SWAP3 POP POP POP SWAP1 JUMP JUMPDEST PUSH1 0x60 PUSH0 PUSH1 0x40 MLOAD DUP1 PUSH1 0x40 ADD PUSH1 0x40 MSTORE DUP1 PUSH1 0xE DUP2 MSTORE PUSH1 0x20 ADD PUSH32 0x49616D20436F6E74726163742031000000000000000000000000000000000000 DUP2 MSTORE POP SWAP1 POP DUP1 SWAP2 POP POP SWAP1 JUMP JUMPDEST PUSH1 0x60 PUSH0 PUSH1 0x40 MLOAD DUP1 PUSH1 0x40 ADD PUSH1 0x40 MSTORE DUP1 PUSH1 0xF DUP2 MSTORE PUSH1 0x20 ADD PUSH32 0x4920616D20436F6E747261637420320000000000000000000000000000000000 DUP2 MSTORE POP SWAP1 POP DUP1 SWAP2 POP POP SWAP1 JUMP JUMPDEST PUSH0 DUP2 MLOAD SWAP1 POP SWAP2 SWAP1 POP JUMP JUMPDEST PUSH0 DUP3 DUP3 MSTORE PUSH1 0x20 DUP3 ADD SWAP1 POP SWAP3 SWAP2 POP POP JUMP JUMPDEST PUSH0 JUMPDEST DUP4 DUP2 LT ISZERO PUSH2 0x199 JUMPI DUP1 DUP3 ADD MLOAD DUP2 DUP5 ADD MSTORE PUSH1 0x20 DUP2 ADD SWAP1 POP PUSH2 0x17E JUMP JUMPDEST PUSH0 DUP5 DUP5 ADD MSTORE POP POP POP POP JUMP JUMPDEST PUSH0 PUSH1 0x1F NOT PUSH1 0x1F DUP4 ADD AND SWAP1 POP SWAP2 SWAP1 POP JUMP JUMPDEST PUSH0 PUSH2 0x1BE DUP3 PUSH2 0x162 JUMP JUMPDEST PUSH2 0x1C8 DUP2 DUP6 PUSH2 0x16C JUMP JUMPDEST SWAP4 POP PUSH2 0x1D8 DUP2 DUP6 PUSH1 0x20 DUP7 ADD PUSH2 0x17C JUMP JUMPDEST PUSH2 0x1E1 DUP2 PUSH2 0x1A4 JUMP JUMPDEST DUP5 ADD SWAP2 POP POP SWAP3 SWAP2 POP POP JUMP JUMPDEST PUSH0 PUSH1 0x20 DUP3 ADD SWAP1 POP DUP2 DUP2 SUB PUSH0 DUP4 ADD MSTORE PUSH2 0x204 DUP2 DUP5 PUSH2 0x1B4 JUMP JUMPDEST SWAP1 POP SWAP3 SWAP2 POP POP JUMP JUMPDEST PUSH0 DUP2 SWAP1 POP SWAP3 SWAP2 POP POP JUMP JUMPDEST PUSH0 PUSH2 0x220 DUP3 PUSH2 0x162 JUMP JUMPDEST PUSH2 0x22A DUP2 DUP6 PUSH2 0x20C JUMP JUMPDEST SWAP4 POP PUSH2 0x23A DUP2 DUP6 PUSH1 0x20 DUP7 ADD PUSH2 0x17C JUMP JUMPDEST DUP1 DUP5 ADD SWAP2 POP POP SWAP3 SWAP2 POP POP JUMP JUMPDEST POP JUMP JUMPDEST PUSH0 PUSH2 0x254 PUSH0 DUP4 PUSH2 0x20C JUMP JUMPDEST SWAP2 POP PUSH2 0x25F DUP3 PUSH2 0x246 JUMP JUMPDEST PUSH0 DUP3 ADD SWAP1 POP SWAP2 SWAP1 POP JUMP JUMPDEST PUSH32 0x4920616D20436F6E747261637433000000000000000000000000000000000000 PUSH0 DUP3 ADD MSTORE POP JUMP JUMPDEST PUSH0 PUSH2 0x29D PUSH1 0xE DUP4 PUSH2 0x20C JUMP JUMPDEST SWAP2 POP PUSH2 0x2A8 DUP3 PUSH2 0x269 JUMP JUMPDEST PUSH1 0xE DUP3 ADD SWAP1 POP SWAP2 SWAP1 POP JUMP JUMPDEST PUSH0 PUSH2 0x2BE DUP3 DUP6 PUSH2 0x216 JUMP JUMPDEST SWAP2 POP PUSH2 0x2C9 DUP3 PUSH2 0x249 JUMP JUMPDEST SWAP2 POP PUSH2 0x2D5 DUP3 DUP5 PUSH2 0x216 JUMP JUMPDEST SWAP2 POP PUSH2 0x2E0 DUP3 PUSH2 0x291 JUMP JUMPDEST SWAP2 POP DUP2 SWAP1 POP SWAP4 SWAP3 POP POP POP JUMP INVALID LOG2 PUSH5 0x6970667358 0x22 SLT KECCAK256 0xD0 PUSH6 0xCCEF30F24E32 PUSH30 0x19DFB6C7D137F87F7EA1B78377CEADBB11452C0E27DBEA64736F6C634300 ADDMOD EQ STOP CALLER "
		},
		"gasEstimates": {
			"creation": {
				"codeDepositCost": "160400",
				"executionCost": "206",
				"totalCost": "160606"
			},
			"external": {
				"c1function()": "infinite",
				"c2function()": "infinite",
				"c3function()": "infinite"
			}
		},
		"methodIdentifiers": {
			"c1function()": "66ae5282",
			"c2function()": "9e7a2a9c",
			"c3function()": "64dc8874"
		}
	},
	"abi": [
		{
			"inputs": [],
			"name": "c1function",
			"outputs": [
				{
					"internalType": "string",
					"name": "",
					"type": "string"
				}
			],
			"stateMutability": "pure",
			"type": "function"
		},
		{
			"inputs": [],
			"name": "c2function",
			"outputs": [
				{
					"internalType": "string",
					"name": "",
					"type": "string"
				}
			],
			"stateMutability": "pure",
			"type": "function"
		},
		{
			"inputs": [],
			"name": "c3function",
			"outputs": [
				{
					"internalType": "string",
					"name": "",
					"type": "string"
				}
			],
			"stateMutability": "pure",
			"type": "function"
		}
	]
}